:100000000C944A010C947B010C947B010C947B01B1
:100010000C947B010C947B010C947B010C947B0170
:100020000C947B010C947B010C947B010C947B0160
:100030000C947B010C947B010C947B010C947B0150
:100040000C947B010C947B010C947B010C947B0140
:100050000C947B010C947B010C947B010C940304A5
:100060000C947B010C9477040C944D040C947B014C
:100070000C947B010C947B010C947B010C947B0110
:100080000C947B010C947B010C947B010C947B0100
:100090000C947B010C947B010C947B010C947B01F0
:1000A0000C947B010C947B010C947B010C947B01E0
:1000B0000C947B010C947B010C947B010C947B01D0
:1000C0000C947B010C947B010C947B010C947B01C0
:1000D0000C947B010C947B010C947B010C947B01B0
:1000E0000C947B010C94F0080C941C090C94A0084F
:1000F0000C9478020C9465090C94F9020C94720922
:100100000C9453020C949B020C9480020C94860273
:100110000C94D2090C94F5080C9402090C9439093A
:100120000C947C020C9464020C946E020C94CC0827
:100130000C945A020C947E030C946A020C944609A7
:100140000C944B020C9472020C9457020C944F02C4
:100150000C9431030C948C090C9460020C942409C7
:100160000C94EB020C9453090C9439020C947F0903
:100170000C940F090C94C8020C9434020C94990945
:100180000C94D7020C948A020C942C0900000A0BE0
:1001900002090C0D0E080703040100000000000016
:1001A000000000000000000000000000000000004F
:1001B000000000000000000012111000000000000C
:1001C000000000000000000000000000000000002F
:1001D000000000002200250028002B002E00310026
:1001E000340002010000050108010B01000021009C
:1001F000240027002A002D003000330001010000F8
:10020000040107010A010505050507050808080896
:10021000020202020A0A080804040404010101019E
:100220000101010103030303030303030407070799
:100230000C0C0C0C0C0C0C0C02020202060606063E
:10024000060606060B0B0B0B0B0B0B0B010210200B
:1002500020080810204010204080020102010804FC
:100260000201010204081020408080402010080490
:1002700002018004020180402010080402010804E9
:10028000020101020408102040800102040810202D
:100290004080D20911241FBECFEFD1E2DEBFCDBF17
:1002A00000E00CBF23E0A0E8B2E001C01D92A13441
:1002B000B207E1F712E0A0E0B2E0E2E1F4E100E031
:1002C0000BBF02C007900D92A038B107D9F711E01B
:1002D000CAE4D1E000E006C021970109802FFE01A9
:1002E0000E94FF09C934D10780E00807A9F70E94DE
:1002F000AD040C94070A0C940000809136038B32F5
:1003000031F08D3231F0823331F48EEF089581E097
:1003100008958FEF089580E00895E3E3F3E028E384
:1003200033E084818053848331962E173F07C9F7C9
:100330004091370320E137E24203C001439F900D13
:1003400011246091380348EE53E064039001659FE7
:10035000300D1124820F931F2091390334E62302BC
:10036000800D911D112420913A033AE02302800D63
:10037000911D112420913B03820F911D27FD9A9519
:100380000895E3E3F3E05285505352874385405389
:10039000438734853053348725852053258768EE7D
:1003A00073E05603C001579F900D112454E6450297
:1003B000800D911D11244AE03402800D911D1124FD
:1003C000820F911D27FD9A95089590E0FC01E45B52
:1003D000FD4F24918A5F9D4FFC018491882399F001
:1003E00090E0880F991FFC01E451FE4FA591B49154
:1003F000FC01EE52FE4F859194918FB7F894EC91E9
:10040000E22BEC938FBF0895282F30E0F901E457D9
:10041000FE4F9491F901E45BFD4F44912A5F3D4FFB
:10042000F9012491222309F435C0992311F1915047
:100430009231F8F4E92FF0E08827EE5DFD4F8F4F01
:100440000C94FF095302570234024B024F02390247
:100450005A02600264026A026E02720278027C0230
:100460003902800286028A02809180008F77809311
:100470008000E22FF0E0EE0FFF1FEE52FE4FA5913D
:10048000B4918FB7F894EC91611148C040954E2318
:100490004C938FBF0895809180008F7DE8CF80912D
:1004A0008000877FE4CF84B58F7784BDE2CF84B5A9
:1004B0008F7DFBCF8091B0008F778093B000D9CF34
:1004C0008091B0008F7DF9CF809190008F778093DD
:1004D0009000CFCF809190008F7DF9CF80919000D8
:1004E000877FF5CF8091A0008F778093A000C1CF48
:1004F0008091A0008F7DF9CF8091A000877FF5CFFC
:10050000809120018F7780932001B3CF80912001CB
:100510008F7DF9CF80912001877FF5CF4E2BB8CF0B
:100520008230910538F0880F991F880F991F059721
:100530000197F1F70895AF92BF92CF92DF92EF92B9
:10054000FF920F931F93CF93DF936C017B018B017D
:10055000040F151FEB015E01AE18BF08C017D107CD
:1005600059F06991D601ED91FC910190F081E02D57
:10057000C6011995892B79F7C501DF91CF911F919C
:100580000F91FF90EF90DF90CF90BF90AF900895C4
:10059000FC01538D448D252F30E0842F90E0821B89
:1005A000930B541710F0CF96089501970895FC010E
:1005B000918D828D981761F0A28DAE0FBF2FB11D66
:1005C0005D968C91928D9F5F9F73928F90E00895BE
:1005D0008FEF9FEF0895FC01918D828D981731F078
:1005E000828DE80FF11D858D90E008958FEF9FEFCC
:1005F0000895FC01918D228D892F90E0805C9F4FA2
:10060000821B91098F739927089586E992E00E94D1
:10061000F90221E0892B09F420E0822F0895FC01E2
:10062000A48DA80FB92FB11DA35ABF4F2C91848D53
:1006300090E001968F739927848FA689B7892C93B0
:10064000A089B1898C91837080648C93938D848D03
:10065000981306C00288F389E02D80818F7D808306
:100660000895EF92FF920F931F93CF93DF93EC01C6
:1006700081E0888F9B8D8C8D98131AC0E889F98949
:10068000808185FF15C09FB7F894EE89FF8960834C
:10069000E889F98980818370806480839FBF81E0CD
:1006A00090E0DF91CF911F910F91FF90EF9008950F
:1006B000F62E0B8D10E00F5F1F4F0F731127E02EEA
:1006C0008C8D8E110CC00FB607FCFACFE889F98922
:1006D000808185FFF5CFCE010E940F03F1CFEB8D16
:1006E000EC0FFD2FF11DE35AFF4FF0829FB7F894F6
:1006F0000B8FEA89FB8980818062CFCFCF93DF9314
:10070000EC01888D8823B9F0AA89BB89E889F98929
:100710008C9185FD03C0808186FD0DC00FB607FC5E
:10072000F7CF8C9185FFF2CF808185FFEDCFCE0191
:100730000E940F03E9CFDF91CF91089580E090E010
:10074000892B29F00E94050381110E94000080E09E
:1007500090E0892B49F080E090E0892B29F00E94FD
:10076000000081110E94000080E090E0892B49F098
:1007700080E090E0892B29F00E94000081110E9406
:10078000000080E090E0892B49F080E090E0892B28
:1007900029F00E94000081110C9400000895E62FBA
:1007A0008F3F980749F40E2E000CFF0BE05DFD4FC4
:1007B00061E080810C940402019739F40E2E000C44
:1007C000FF0BE05DFD4F60E0F4CF0895CF93DF9322
:1007D000FC0101900020E9F73197AF01481B590B4C
:1007E000BC0186E992E00E949B02EC0142E050E0ED
:1007F00068E472E086E992E00E949B028C0F9D1FE4
:10080000DF91CF9108951F920F920FB60F9211248E
:100810002F933F938F939F93AF93BF9380919202B7
:1008200090919302A0919402B0919502309191021F
:1008300023E0230F2D3758F50196A11DB11D2093FC
:1008400091028093920290939302A0939402B093AA
:10085000950280918D0290918E02A0918F02B091AD
:1008600090020196A11DB11D80938D0290938E027E
:10087000A0938F02B0939002BF91AF919F918F91FF
:100880003F912F910F900FBE0F901F90189526E863
:10089000230F0296A11DB11DD2CF1F920F920FB64A
:1008A0000F9211240BB60F922F933F934F935F93A8
:1008B0006F937F938F939F93AF93BF93EF93FF9328
:1008C00086E992E00E940F03FF91EF91BF91AF91F3
:1008D0009F918F917F916F915F914F913F912F9158
:1008E0000F900BBE0F900FBE0F901F9018951F9288
:1008F0000F920FB60F9211240BB60F922F938F9376
:100900009F93EF93FF93E091A602F091A70280815D
:10091000E091AC02F091AD0282FD1DC0908180910A
:10092000AF028F5F8F732091B002821741F0E09188
:10093000AF02F0E0EA56FD4F958F8093AF02FF9132
:10094000EF919F918F912F910F900BBE0F900FBE43
:100950000F901F9018958081F2CFCF93DF93CDB782
:10096000DEB7E0970FB6F894DEBF0FBECDBF789428
:1009700084B5826084BD84B5816084BD85B58260A4
:1009800085BD85B5816085BD80916E008160809355
:100990006E001092810080918100826080938100BE
:1009A00080918100816080938100809180008160CE
:1009B000809380008091B10084608093B100809129
:1009C000B00081608093B00080919100826080933C
:1009D00091008091910081608093910080919000BE
:1009E0008160809390008091A10082608093A1003B
:1009F0008091A10081608093A1008091A00081601E
:100A00008093A000809121018260809321018091D8
:100A10002101816080932101809120018160809378
:100A2000200180917A00846080937A0080917A001E
:100A3000826080937A0080917A00816080937A004E
:100A400080917A00806880937A001092C10006E35A
:100A500012E0E0E3CE2EE2E0DE2EFCE3AF2EF2E089
:100A6000BF2EACE3EA2EA2E0FA2EF80181918F01AD
:100A70000E94E501F60191906F01892D0E94E50128
:100A8000F70181907F01882D0E94E50161E0882DAA
:100A90000E94040260E0892D0E940402A016B106A3
:100AA00021F784E30E94E5018DE10E94E5018FE1D9
:100AB0000E94E50160E08DE10E94040260E08FE1A8
:100AC0000E94040281E20E94E50183E20E94E501A6
:100AD00060E081E20E94040260E083E20E9404027E
:100AE00060E084E30E940402E091A602F091A70274
:100AF00082E08083E091A202F091A3021082E09153
:100B0000A402F091A5028FEC80831092AE02E091D6
:100B1000AA02F091AB0286E08083E091A802F091F6
:100B2000A902808180618083E091A802F091A902EE
:100B3000808188608083E091A802F091A902808181
:100B400080688083E091A802F091A90280818F7D66
:100B500080838BE492E00E94E6039E01235F3F4F77
:100B60003A8F298FAE014F5F5F4F5C8F4B8F83E3CE
:100B700093E09CA38BA38C012FB7F89480919202F1
:100B800090919302A0919402B09195022FBF80930F
:100B90009E0290939F02A093A002B093A10286E9C7
:100BA00092E00E94D70297FFF4C32FB7F894809188
:100BB000920290919302A0919402B09195022FBF5E
:100BC00040919E0250919F026091A0027091A102FB
:100BD000841B950BA60BB70B40919A0250919B0278
:100BE00060919C0270919D0284179507A607B70734
:100BF000B0F2809133038D3409F07CC280913403CC
:100C0000813409F062C00091350300530E947D01D8
:100C1000E82E0E948D014C010E94C1015C010E2C46
:100C2000000CFF08602FC7010E94CF03002E000CAC
:100C3000110BF801E45CFD4F508060E0852D0E94AF
:100C40000402D12CC12CF801EA5CFD4F3F01000FDA
:100C5000111F00581D4FC814D9043CF5F301408002
:100C600061E0842D0E940402C5010E94900260E0B0
:100C7000842D0E940402C5010E949002F1E0EF164B
:100C8000F10451F4F8018081918101969183808370
:100C9000FFEFCF1ADF0ADFCFFFEFEF16FF06C1F736
:100CA000F801808191810197F1CF61E0852D0E944B
:100CB00004028CE592E00E94E603E3E3F3E0119284
:100CC00021E433E02E173F07D1F7809134038435B8
:100CD00009F0A7C0109135030E947D01C82E0E9423
:100CE0008D012C010E94C1014C010C2C000CDD086F
:100CF000183509F470C0193521F433E03EA341E002
:100D00004DA36DA1C6010E94CF036EA1C6010E9432
:100D1000CF038DA1082F880F110BF801E45CFD4F64
:100D2000608060E0862D0E9404029EA1E92E990F4A
:100D3000FF08F701E45CFD4F708060E0872D0E94A2
:100D40000402B12CA12CF801EA5CFD4FFE8FED8F5F
:100D500097012A5C3D4F38A32F8F000F111F0058B9
:100D60001D4FEE0CFF1CA70140585D4F7A01A414E3
:100D7000B5040CF043C0ED8DFE8D208061E0822D26
:100D80000E940402EF8DF8A1308061E0832D0E9463
:100D90000402C4010E94900260E0822D0E940402BD
:100DA00060E0832D0E940402C4010E949002F1E0E1
:100DB000CF16D104A1F4F80180819181019691832D
:100DC0008083F70180819181019691838083FFEF79
:100DD000AF1ABF0ACCCF52E05EA31DA292CFFFEFA5
:100DE000CF16DF06A1F7F8018081918101979183E9
:100DF0008083F701808191810197E7CF61E0862DA3
:100E00000E94040261E0872D0E94040288E692E0BD
:100E10000E94E603E3E3F3E0119223E0E134F207FA
:100E2000D9F7809134038D3409F064C1F0908C02BD
:100E30000F2D0F2C000C110B80913503082E000C88
:100E4000990BC097E3E3F3E00817190709F07DC198
:100E50000E947D01F801E85EFD4F80830E948D01B4
:100E6000000F111FF801E45FFD4F918380830E9402
:100E7000C10100501E4FF80191838083E3E3F3E04A
:100E8000119223E0E134F207D9F781E08F0D8093CE
:100E90008C02863009F02EC1E98DFA8D2CE011927A
:100EA0002A95E9F7EB8DFC8D2CE011922A95E9F754
:100EB00098E1A92E92E0B92E2CE0E22E22E0F22E4B
:100EC0008E01035F1F4F3CE3C32E32E0D32E912CE3
:100ED000F50181915F01692D082E000C990B0E948C
:100EE000CF0360E0F60181916F010E940402F701D7
:100EF000819191917F01F801819391938F01939456
:100F0000F6E09F12E5CF2D853E853E8F2D8F4F85D4
:100F1000588958A34F8F89899A8998A78FA3EB89FD
:100F2000FC89FAA7E9A72D893E893CA72BA74F8901
:100F3000588D5EA74DA79D8D8E8DED8DFE8D2F8DCD
:100F400038A1E217F30714F49F8D88A1092F182FF9
:100F50004FA158A5041715070CF48A0189A59AA575
:100F6000081719070CF48C01EBA5FCA50E171F0739
:100F70000CF48F012DA53EA5021713070CF489016F
:100F80007801F594E794F194E194F1081701470191
:100F900067013701270118AA1FA64FA558A94017B6
:100FA00051070CF094C08D8D9E8DE80EF91E1E1415
:100FB0001F0454F461E087E20E940402E01AF10A7F
:100FC000E1E0F0E0FA83E9832F8D38A1420E531E51
:100FD0001414150454F461E088E20E940402401ADB
:100FE000510A41E050E05C834B838FA198A5680EC5
:100FF000791E1614170454F461E086E20E9404027C
:10100000601A710AE1E0F0E0FE83ED8329A53AA5BC
:10101000C20ED31E1C141D0454F461E081E10E9431
:101020000402C01AD10A41E050E058874F838BA5D3
:101030009CA5880E991E1814190454F461E080E1EF
:101040000E940402801A910AE1E0F0E0FA87E98741
:101050002DA53EA5220E331E1214130454F461E094
:101060008FE00E940402201A310A41E050E05C87C0
:101070004B8780910002909101020E949002CE0164
:1010800001969AA389A3B12CA12CE9A1FAA181917F
:101090009191FAA3E9A3019761F460E0F501EA5C9C
:1010A000FD4F80810E940402E9A1FAA132971182CA
:1010B0001082FFEFAF1ABF0A26E0A216B10429F78B
:1010C0004FA558A94F5F5F4F58AB4FA766CF0CE3B2
:1010D00012E061E0F80181918F010E94040222E494
:1010E00032E020173107A9F784E792E00E94E60377
:1010F00010928C0280913303843409F06EC0809189
:101100003403823509F069C00091350300530E9411
:101110007D01E82E0E94C101D82E0E2C000CFF0884
:1011200061E084E30E940402002E000C110BF80120
:10113000EA5BFD4FC0808C2D0E94E501D1100BC0F1
:1011400060E08C2D0E9404022BC0119233E0E13448
:10115000F307D9F7CFCFEC2DF0E0E457FE4FE49141
:10116000E150E23168F7F0E08827E654F74F8F4FFF
:101170000C94FF09CC08F008F50802090F09A00833
:101180001C0924092C093909460953096509720902
:10119000A0087F098C09990984B5806884BDD7BCF3
:1011A00041E0E416F10409F0D1C0F801EC5BFD4F19
:1011B00061E080810E940402F801EE5BFD4F60E077
:1011C00080810E940402EBA1FCA11192FCA3EBA37D
:1011D00021E433E02E173F07B1F70E949E03C7CCEE
:1011E00084B5806284BDD8BCDBCF809180008068EC
:1011F000809380008D2DDD0C990B90938900809356
:101200008800CECF809180008062809380008D2DF9
:10121000DD0C990B90938B0080938A00C1CF809155
:1012200080008860809380008D2DDD0C990B909359
:101230008D0080938C00B4CF8091B0008068809343
:10124000B000D092B300ACCF8091B00080628093A8
:10125000B000D092B400A4CF8091900080688093B9
:1012600090008D2DDD0C990B909399008093980040
:1012700097CF809190008062809390008D2DDD0C3F
:10128000990B90939B0080939A008ACF8091900055
:101290008860809390008D2DDD0C990B90939D00BC
:1012A00080939C007DCF8091A00080688093A000F7
:1012B0008091A0008F7B8093A0008D2DDD0C990B79
:1012C0009093A9008093A8006BCF8091A0008062CA
:1012D0008093A0008D2DDD0C990B9093AB00809333
:1012E000AA005ECF8091A00088608093A0008D2D21
:1012F000DD0C990B9093AD008093AC0051CF8091A1
:1013000020018068809320018D2DDD0C990B909336
:1013100029018093280144CF80912001806280932D
:1013200020018D2DDD0C990B90932B0180932A01C8
:1013300037CF809120018860809320018D2DDD0CB6
:10134000990B90932D0180932C012ACF5FEFE51626
:10135000F50661F4F801EC5BFD4F60E080810E94CE
:101360000402F801EE5BFD4F61E02ACFE114F104C5
:1013700029F4F801EC5BFD4F60E01BCF8EEFE8161F
:101380008FEFF80609F01FCFF801EC5BFD4F61E02D
:10139000E5CFF80181938F01F3E001341F0709F0D5
:1013A000EBCB27CCE6E9F2E01382128288EE93E0E1
:1013B000A0E0B0E084839583A683B78382E292E0C5
:1013C0009183808385EC90E09587848784EC90E01E
:1013D0009787868780EC90E0918B808B81EC90E002
:1013E000938B828B82EC90E0958B848B86EC90E0E3
:1013F000978B868B118E128E138E148E0895EE0F9E
:10140000FF1F881F8BBF0790F691E02D1994F89469
:02141000FFCF0C
:1014120000000100020003000400050000000100BA
:10142200020003000400050000010203040500009D
:10143200000031039B02C8027E03F902D702EB02CD
:101442001B191E2F095727282611100F414A42291E
:1014520056551F231D2102030D0A0053657269614F
:101462006C20626567696E206F6B21004D41204DD3
:101472004F5645206F6B21004D54204D4F5645204D
:101482006F6B21004D4D204D4F5645206F6B210053
:00000001FF
