:100000000C945D000C9485000C9485000C94850084
:100010000C9485000C9485000C9485000C9485004C
:100020000C9485000C9485000C9485000C9485003C
:100030000C9485000C9485000C9485000C9485002C
:100040000C94FE020C9485000C94CC020C94A60235
:100050000C9485000C9485000C9485000C9485000C
:100060000C9485000C94850000000008000201003B
:100070000003040700000000000000000000000072
:10008000250028002B0000000000240027002A0083
:10009000040404040404040402020202020203032E
:1000A0000303030301020408102040800102040836
:1000B0001020010204081020B80711241FBECFEF42
:1000C000D8E0DEBFCDBF22E0A0E8B1E001C01D92C4
:1000D000A134B207E1F711E0A0E0B1E0EAEDFFE002
:1000E00002C005900D92A038B107D9F710E0CDE518
:1000F000D0E004C02197FE010E94E507CC35D1076E
:10010000C9F70E9448030C94EB070C9400008091FF
:1001100036028B3231F08D3231F0823331F48EEF92
:10012000089581E008958FEF089580E00895E3E356
:10013000F2E028E332E084818053848331962E17E5
:100140003F07C9F74091370220E137E24203C0017F
:10015000439F900D11246091380248EE53E06403F0
:100160009001659F300D1124820F931F2091390259
:1001700034E62302800D911D112420913A023AE0C9
:100180002302800D911D112420913B02820F911DAD
:1001900027FD9A950895E3E3F2E052855053528784
:1001A0004385405343873485305334872585205316
:1001B000258768EE73E05603C001579F900D112408
:1001C00054E64502800D911D11244AE03402800D51
:1001D000911D1124820F911D27FD9A95089590E09D
:1001E000FC01EC55FF4F249180579F4FFC018491F7
:1001F000882399F090E0880F991FFC01EA57FF4F80
:10020000A591B491FC01E458FF4F859194918FB76B
:10021000F894EC91E22BEC938FBF0895AF92BF92CC
:10022000CF92DF92EF92FF920F931F93CF93DF93C2
:100230006C017B018B01040F151FEB015E01AE18F1
:10024000BF08C017D10759F06991D601ED91FC9113
:100250000190F081E02DC6010995892B79F7C50140
:10026000DF91CF911F910F91FF90EF90DF90CF9092
:10027000BF90AF900895FC01538D448D252F30E041
:10028000842F90E0821B930B541710F0CF960895A3
:1002900001970895FC01918D828D981761F0A28DD0
:1002A000AE0FBF2FB11D5D968C91928D9F5F9F7396
:1002B000928F90E008958FEF9FEF0895FC01918D4C
:1002C000828D981731F0828DE80FF11D858D90E0B9
:1002D00008958FEF9FEF0895FC01918D228D892F56
:1002E00090E0805C9F4F821B91098F73992708953E
:1002F00086E991E00E946C0121E0892B09F420E05D
:10030000822F089580E090E0892B29F00E947801E7
:1003100081110C9400000895FC01A48DA80FB92F41
:10032000B11DA35ABF4F2C91848D90E001968F731D
:100330009927848FA689B7892C93A089B1898C913C
:10034000837080648C93938D848D981306C002888B
:10035000F389E02D80818F7D80830895EF92FF9255
:100360000F931F93CF93DF93EC0181E0888F9B8DD8
:100370008C8D98131AC0E889F989808185FF15C092
:100380009FB7F894EE89FF896083E889F9898081B5
:100390008370806480839FBF81E090E0DF91CF9184
:1003A0001F910F91FF90EF900895F62E0B8D10E0A6
:1003B0000F5F1F4F0F731127E02E8C8D8E110CC015
:1003C0000FB607FCFACFE889F989808185FFF5CF60
:1003D000CE010E948C01F1CFEB8DEC0FFD2FF11DB2
:1003E000E35AFF4FF0829FB7F8940B8FEA89FB899D
:1003F00080818062CFCFCF93DF93EC01888D8823FB
:10040000B9F0AA89BB89E889F9898C9185FD03C077
:10041000808186FD0DC00FB607FCF7CF8C9185FF5C
:10042000F2CF808185FFEDCFCE010E948C01E9CF14
:10043000DF91CF91089590E0FC01E859FF4F24919E
:10044000FC01EC55FF4F3491FC01E057FF4FE49164
:10045000EE23C9F0222339F0233001F1A8F4213032
:1004600019F1223029F1F0E0EE0FFF1FE458FF4FA1
:10047000A591B4918FB7F894EC91611126C0309595
:100480003E233C938FBF08952730A9F02830C9F050
:10049000243049F7809180008F7D03C080918000D7
:1004A0008F7780938000DFCF84B58F7784BDDBCFDB
:1004B00084B58F7DFBCF8091B0008F778093B000A3
:1004C000D2CF8091B0008F7DF9CF3E2BDACF823032
:1004D000910538F0880F991F880F991F059701978C
:1004E000F1F70895E62F8F3F980749F40E2E000C80
:1004F000FF0BE05DFE4F61E080810C941B020197D1
:1005000039F40E2E000CFF0BE05DFE4F60E0F4CFDF
:100510000895CF93DF93FC0101900020E9F7319714
:10052000AF01481B590BBC0186E991E00E940E0106
:10053000EC0142E050E068E471E086E991E00E945D
:100540000E018C0F9D1FDF91CF9108951F920F9286
:100550000FB60F9211242F933F934F935F936F9396
:100560007F938F939F93AF93BF93EF93FF9386E90E
:1005700091E00E948C01FF91EF91BF91AF919F910B
:100580008F917F916F915F914F913F912F910F903C
:100590000FBE0F901F9018951F920F920FB60F92DB
:1005A00011242F938F939F93EF93FF93E091A601D4
:1005B000F091A7018081E091AC01F091AD0182FD45
:1005C0001BC090818091AF018F5F8F732091B0012C
:1005D000821741F0E091AF01F0E0EA56FE4F958FAF
:1005E0008093AF01FF91EF919F918F912F910F9089
:1005F0000FBE0F901F9018958081F4CF1F920F921D
:100600000FB60F9211242F933F938F939F93AF9325
:10061000BF938091850190918601A0918701B0914F
:1006200088013091840123E0230F2D3758F501967E
:10063000A11DB11D209384018093850190938601B3
:10064000A0938701B09388018091800190918101EE
:10065000A0918201B09183010196A11DB11D8093EB
:10066000800190938101A0938201B0938301BF9197
:10067000AF919F918F913F912F910F900FBE0F904F
:100680001F90189526E8230F0296A11DB11DD2CF09
:10069000CF93DF93CDB7DEB7E0970FB6F894DEBF08
:1006A0000FBECDBF789484B5826084BD84B581606F
:1006B00084BD85B5826085BD85B5816085BD80912D
:1006C0006E00816080936E001092810080918100A5
:1006D000826080938100809181008160809381009D
:1006E000809180008160809380008091B10084605F
:1006F0008093B1008091B00081608093B0008091C0
:100700007A00846080937A0080917A00826080937E
:100710007A0080917A00816080937A0080917A00DB
:10072000806880937A001092C10006E311E0E0E354
:10073000CE2EE1E0DE2EFCE3AF2EF1E0BF2EACE3E7
:10074000EA2EA1E0FA2EF80181918F010E94EF00BC
:10075000F60191906F01892D0E94EF00F7018190C1
:100760007F01882D0E94EF0061E0882D0E941B020E
:1007700060E0892D0E941B02A016B10621F784E3D8
:100780000E94EF008DE10E94EF008FE10E94EF00D8
:1007900060E08DE10E941B0260E08FE10E941B027D
:1007A00081E20E94EF0083E20E94EF0060E081E2BC
:1007B0000E941B0260E083E20E941B0260E084E36F
:1007C0000E941B02E091A601F091A70182E08083C4
:1007D000E091A201F091A3011082E091A401F091B7
:1007E000A5018FEC80831092AE01E091AA01F091F7
:1007F000AB0186E08083E091A801F091A90180819E
:1008000080618083E091A801F091A90180818860D6
:100810008083E091A801F091A901808180688083A4
:10082000E091A801F091A90180818F7D80838BE404
:1008300091E00E9489029E01235F3F4F3A8F298FEA
:10084000AE014F5F5F4F5C8F4B8F83E392E09CA3C1
:100850008BA38C012FB7F89480918501909186012C
:10086000A0918701B09188012FBF80939E01909342
:100870009F01A093A001B093A10186E991E00E949D
:100880004A0197FF6BC32FB7F8948091850190912F
:100890008601A0918701B09188012FBF40919E01F0
:1008A00050919F016091A0017091A101841B950B53
:1008B000A60BB70B40919A0150919B0160919C014E
:1008C00070919D0184179507A607B707B0F2809134
:1008D00033028D3409F07CC280913402813409F0F6
:1008E00061C00091350200530E948700E82E0E94EB
:1008F00097004C010E94CB005C010E2C000CFF08FD
:10090000602FC7010E947202002E000C110BF8012B
:10091000E45CFE4F508060E0852D0E941B02D12CCC
:10092000C12CF801EA5CFE4F3F01000F111F075771
:100930001E4FC814D9043CF5F301408061E0842DBA
:100940000E941B02C5010E94670260E0842D0E9484
:100950001B02C5010E946702F1E0EF16F10451F499
:10096000F80180819181019691838083FFEFCF1AF6
:10097000DF0ADFCFFFEFEF16FF06C1F7F801808136
:1009800091810197F1CF61E0852D0E941B028CE5DA
:1009900091E00E948902E3E3F2E0119222E0E13467
:1009A000F207D9F780913402843509F0A7C010917D
:1009B00035020E948700C82E0E9497002C010E94D9
:1009C000CB004C010C2C000CDD08183509F470C06C
:1009D000193521F433E03EA341E04DA36DA1C601DA
:1009E0000E9472026EA1C6010E9472028DA1082FA0
:1009F000880F110BF801E45CFE4F608060E0862DEB
:100A00000E941B029EA1E92E990FFF08F701E45CEA
:100A1000FE4F708060E0872D0E941B02B12CA12C3C
:100A2000F801EA5CFE4FFE8FED8F97012A5C3E4F86
:100A300038A32F8F000F111F07571E4FEE0CFF1CFE
:100A4000A70147575E4F7A01A414B5040CF043C0C8
:100A5000ED8DFE8D208061E0822D0E941B02EF8DC6
:100A6000F8A1308061E0832D0E941B02C4010E9426
:100A7000670260E0822D0E941B0260E0832D0E94CD
:100A80001B02C4010E946702F1E0CF16D104A1F459
:100A9000F80180819181019691838083F7018081A3
:100AA0009181019691838083FFEFAF1ABF0ACCCF6B
:100AB00052E05EA31DA292CFFFEFCF16DF06A1F793
:100AC000F80180819181019791838083F701808172
:100AD00091810197E7CF61E0862D0E941B0261E0C2
:100AE000872D0E941B0288E691E00E948902E3E3C1
:100AF000F2E0119222E0E134F207D9F7809134025A
:100B00008D3409F065C1F09095010F2D0F2C000C6C
:100B1000110B80913502082E000C990BC097E3E36E
:100B2000F2E00817190709F07EC10E948700F8015A
:100B3000E85EFE4F80830E949700000F111FF801AE
:100B4000E45FFE4F918380830E94CB0000501F4FD3
:100B5000F80191838083E3E3F2E0119221E432E033
:100B60002E173F07D1F781E08F0D809395018630D6
:100B700009F02EC1E98DFA8D2CE011922A95E9F742
:100B8000EB8DFC8D2CE011922A95E9F798E1A92EC6
:100B900091E0B92E2CE0E22E21E0F22E8E01035FCF
:100BA0001F4F3CE3C32E31E0D32E912CF5018191F0
:100BB0005F01692D082E000C990B0E94720260E003
:100BC000F60181916F010E941B02F70181919191C1
:100BD0007F01F801819391938F019394F6E09F1226
:100BE000E5CF2D853E853E8F2D8F4F85588958A3A3
:100BF0004F8F89899A8998A78FA3EB89FC89FAA7D7
:100C0000E9A72D893E893CA72BA74F89588D5EA760
:100C10004DA79D8D8E8DED8DFE8D2F8D38A1E21708
:100C2000F30714F49F8D88A1092F182F4FA158A501
:100C3000041715070CF48A0189A59AA50817190746
:100C40000CF48C01EBA5FCA50E171F070CF48F010B
:100C50002DA53EA5021713070CF489017801F59420
:100C6000E794F194E194F108170147016701370116
:100C7000270118AA1FA64FA558A9401751070CF025
:100C800094C08D8D9E8DE80EF91E1E141F0454F421
:100C900061E087E20E941B02E01AF10AE1E0F0E065
:100CA000FA83E9832F8D38A1420E531E14141504C4
:100CB00054F461E088E20E941B02401A510A41E0AC
:100CC00050E05C834B838FA198A5680E791E1614A3
:100CD000170454F461E086E20E941B02601A710A54
:100CE000E1E0F0E0FE83ED8329A53AA5C20ED31E14
:100CF0001C141D0454F461E081E10E941B02C01A1F
:100D0000D10A41E050E058874F838BA59CA5880EFF
:100D1000991E1814190454F461E080E10E941B022A
:100D2000801A910AE1E0F0E0FA87E9872DA53EA557
:100D3000220E331E1214130454F461E08FE00E945B
:100D40001B02201A310A41E050E05C874B878091FA
:100D50000001909101010E946702CE0101969AA3C1
:100D600089A3B12CA12CE9A1FAA181919191FAA3B7
:100D7000E9A3019761F460E0F501EA5CFE4F808130
:100D80000E941B02E9A1FAA1329711821082FFEFA3
:100D9000AF1ABF0A26E0A216B10429F74FA558A939
:100DA0004F5F5F4F58AB4FA766CF0CE311E061E098
:100DB000F80181918F010E941B0222E431E020178B
:100DC0003107A9F784E791E00E948902109295010A
:100DD00080913302843409F074C0809134028235EA
:100DE00009F06FC00091350200530E948700E82E81
:100DF0000E94CB00D82E0E2C000CFF0861E084E38B
:100E00000E941B02002E000C110BF801EA5BFE4F42
:100E1000C0808C2D0E94EF00D1100BC060E08C2DA3
:100E20000E941B0231C0119232E0E134F307D9F77E
:100E3000CFCFEC2DF0E0E859FF4FE491E33009F417
:100E40004DC048F4E130E1F0E23041F784B5806212
:100E500084BDD8BC19C0E73009F44DC0E83009F4AE
:100E600052C0E430D9F68091800080628093800087
:100E70008D2DDD0C990B90938B0080938A0004C01C
:100E800084B5806884BDD7BC41E0E416F10409F064
:100E900042C0F801EC5BFE4F61E080810E941B02C2
:100EA000F801EE5BFE4F60E080810E941B02EBA127
:100EB000FCA11192FCA3EBA321E432E02E173F0723
:100EC000B1F740E050E0452B09F4BFCC0E94780117
:100ED000882309F4BACC0E940000B7CC809180002E
:100EE0008068809380008D2DDD0C990B9093890094
:100EF00080938800C9CF8091B00080688093B00053
:100F0000D092B300C1CF8091B00080628093B000D6
:100F1000D092B400B9CF5FEFE516F50661F4F801A1
:100F2000EC5BFE4F60E080810E941B02F801EE5BEB
:100F3000FE4F61E0B9CFE114F10429F4F801EC5B54
:100F4000FE4F60E0AACF8EEFE8168FEFF80609F0AB
:100F5000AECFF801EC5BFE4F61E0E5CFF801819385
:100F60008F0121E432E02E173F0709F073CCAFCC9C
:100F7000E6E9F1E01382128288EE93E0A0E0B0E0AF
:100F800084839583A683B78382E291E091838083F3
:100F900085EC90E09587848784EC90E0978786873E
:100FA00080EC90E0918B808B81EC90E0938B828B36
:100FB00082EC90E0958B848B86EC90E0978B868B0F
:100FC000118E128E138E148E0895EE0FFF1F059052
:0A0FD000F491E02D0994F894FFCF8E
:100FDA0000000100020003000400050000000100F7
:100FEA0002000300040005000001020304050000DA
:100FFA000000AE010E013B01FB016C014A015E01DA
:10100A001B191E2F095727282611100F414A42295A
:10101A0056551F231D2102030D0A0053657269618B
:10102A006C20626567696E206F6B21004D41204D0F
:10103A004F5645206F6B21004D54204D4F56452089
:10104A006F6B21004D4D204D4F5645206F6B21008F
:107E0000112484B714BE81FFF0D085E080938100F7
:107E100082E08093C00088E18093C10086E0809377
:107E2000C20080E18093C4008EE0C9D0259A86E02C
:107E300020E33CEF91E0309385002093840096BBD3
:107E4000B09BFECF1D9AA8958150A9F7CC24DD24C4
:107E500088248394B5E0AB2EA1E19A2EF3E0BF2EE7
:107E6000A2D0813461F49FD0082FAFD0023811F036
:107E7000013811F484E001C083E08DD089C08234E0
:107E800011F484E103C0853419F485E0A6D080C0E4
:107E9000853579F488D0E82EFF2485D0082F10E0AE
:107EA000102F00270E291F29000F111F8ED06801E7
:107EB0006FC0863521F484E090D080E0DECF843638
:107EC00009F040C070D06FD0082F6DD080E0C81688
:107ED00080E7D80618F4F601B7BEE895C0E0D1E017
:107EE00062D089930C17E1F7F0E0CF16F0E7DF06D8
:107EF00018F0F601B7BEE89568D007B600FCFDCFD4
:107F0000A601A0E0B1E02C9130E011968C91119780
:107F100090E0982F8827822B932B1296FA010C0160
:107F200087BEE89511244E5F5F4FF1E0A038BF0790
:107F300051F7F601A7BEE89507B600FCFDCF97BE46
:107F4000E89526C08437B1F42ED02DD0F82E2BD052
:107F50003CD0F601EF2C8F010F5F1F4F84911BD097
:107F6000EA94F801C1F70894C11CD11CFA94CF0C13
:107F7000D11C0EC0853739F428D08EE10CD085E9AC
:107F80000AD08FE07ACF813511F488E018D01DD067
:107F900080E101D065CF982F8091C00085FFFCCF94
:107FA0009093C60008958091C00087FFFCCF809118
:107FB000C00084FD01C0A8958091C6000895E0E648
:107FC000F0E098E1908380830895EDDF803219F02E
:107FD00088E0F5DFFFCF84E1DECF1F93182FE3DFCA
:107FE0001150E9F7F2DF1F91089580E0E8DFEE27F6
:047FF000FF270994CA
:027FFE00040479
:0400000300007E007B
:00000001FF
